:020000022000DC
:1060000000000120B5620200DD620200DF620200D2
:10601000E1620200E3620200E562020000000000AB
:10602000000000000000000000000000E762020025
:10603000E962020000000000EB620200ED62020073
:10604000AD930200EF620200A99B0200EF62020022
:10605000EF620200EF62020065970200EF62020049
:10606000EF620200EF620200EF620200EF620200E4
:10607000EF620200EF620200EF620200EF620200D4
:10608000EF620200757D0200EF620200EF62020023
:10609000EF620200EF620200C1CB0200EF62020079
:1060A000EF620200EF620200EF620200EF620200A4
:1060B000EF620200EF62020000000000000000003A
:1060C000EF620200EF620200EF620200EF62020084
:1060D000EF620200EF620200EF62020000000000C7
:1060E00000000000000000000000000000000000B0
:1060F00000000000000000000000000000000000A0
:10610000000000000000000000000000000000008F
:10611000000000000000000000000000000000007F
:10612000000000000000000000000000000000006F
:10613000000000000000000000000000000000005F
:10614000000000000000000000000000000000004F
:10615000000000000000000000000000000000003F
:10616000000000000000000000000000000000002F
:10617000000000000000000000000000000000001F
:10618000000000000000000000000000000000000F
:1061900000000000000000000000000000000000FF
:1061A00000000000000000000000000000000000EF
:1061B00000000000000000000000000000000000DF
:1061C00000000000000000000000000000000000CF
:1061D00000000000000000000000000000000000BF
:1061E00000000000000000000000000000000000AF
:1061F000000000000000000000000000000000009F
:1062000010B5054C237833B9044B13B10448AFF3F0
:1062100000800123237010BD3824002000000000FE
:10622000DCDE020008B5034B1BB103490348AFF3A2
:10623000008008BD000000003C240020DCDE0200DD
:10624000154B002B08BF134B9D46A3F5803A002148
:106250008B460F461348144A121A06F085FE0F4B60
:10626000002B00D098470E4B002B00D09847002001
:10627000002104000D000D48002802D00C48AFF3A7
:10628000008006F031FE2000290004F079FB06F0C2
:1062900017FE00BF00000800000001200000000001
:1062A0000000000038240020E02E00200000000044
:1062B000000000000649074A074B9B1A03DD043B18
:1062C000C858D050FBDC02F025FDFFF7B9FF0000F5
:1062D0002CE00200B81D002038240020FEE7FEE775
:1062E000FEE7FEE7FEE7FEE7FEE7FEE7FEE7FEE786
:1062F000F0B595B000241D460E460846174602F03C
:10630000CFFA304623460822099505A91A9D089719
:106310000D950A948DF82C400C9402F025FB9DF805
:1063200014308DF81140DDE9061003F00302012A54
:10633000CDE9020128D0022A04D0304602F0B4FA96
:1063400015B0F0BDBDF81650C3F3C2038DF8103080
:10635000C5F389150827082D2C4628BF08243B467D
:1063600022460EA9304602F0FFFA2D1B214608AB4B
:1063700002AA0EA8274400F09FFE002DEBD1304664
:1063800002F092FA15B0F0BDBDF81470059DC7F388
:106390008312C3F3C2040EA93046920008238DF87D
:1063A0001040C7F3831702F0DFFAC5F3952508AB59
:1063B0003A4628460EA9009302AB00F005FE30468F
:1063C00002F072FA15B0F0BD014B01221A7070474D
:1063D00098240020704700BF00B583B0044B0093A1
:1063E000044A4023FFF784FF03B05DF804FB00BFBD
:1063F000F96302005824002038B50E480E4D03788A
:106400000E4CEB5C00252570D2B253B1043004F081
:10641000D1F858B90A4B1B7813B12378002BFCD064
:1064200038BD0C3003F01CFE0028F3D001F0A4F8B6
:10643000F0E700BFB81D0020DC2E002098240020CB
:10644000542400202DE9704319481A4A0378D35C7C
:1064500088B02BB3043004F00DF8174D0FCD6C4607
:106460000FC495E80F004FF0EB7684E80F004FF073
:1064700006084FF0FF394FF0FF344FF0FF350C485E
:10648000069600226946CDE90089CDE9024502F071
:1064900013FF48B9094B00221A7008B0BDE8708399
:1064A0000C3003F06FFDD8E701F066F8F2E700BFAB
:1064B000B81D0020DC2E0020B8CF0200542400209C
:1064C000F0B5154D0FCD89B06C460FC495E80F009F
:1064D0004FF0EB7C84E80F0006264FF0FF374FF0BB
:1064E000FF344FF0FF350D4A0D48CDF818C069460E
:1064F000CDE90067CDE9024502F0DEFE20B9094B87
:1065000001221A7009B0F0BD01F036F8054B0122E6
:106510001A7009B0F0BD00BFB8CF0200C963020015
:10652000B81D00205424002008B5FFF7C9FF044817
:10653000042100F0C7FC034B01225A7108BD00BFC3
:1065400014E00200CC1D0020064B074810B50022C5
:106550001A7002F03BF9044610B9044802F062FBDD
:10656000204610BD6C250020C0DF020010D00200C4
:1065700099B10E4B0E495B1ADB0815D030B40022DE
:106580000C4D02E0013293420BD035F82240844298
:10659000F8D151F8320030BC7047054951F830004D
:1065A0007047002030BC704718467047C0DF0200BB
:1065B00028DF020038240020094B013903EBC0001A
:1065C00003290BD8DFE801F0040208060420704715
:1065D000022070474079704700797047002070476B
:1065E00028DF02002DE9F0438C4CD4E901239A42C4
:1065F00085B060D00023C4F81834BFF34F8FA5686E
:10660000EAB2D31C04EB830114F82330580718D5E1
:1066100066680B7803F00303012B42D0022B03D1F1
:106620004B88023505EB9315EAB2D4F81804D31C55
:1066300004EB830128B9AE4239D914F823305B0743
:10664000E7D404EB82026B1CD2680192DBB204EB4C
:10665000830302F00302DB680293022A05F10206BB
:106660002DD0012A00F08D80D4F810543DB12B6854
:1066700028469B689847EB681D68002DF7D168484D
:10668000684B6949C01AC008000440F0020000F0DD
:10669000D1F8D4E90130C01A18BF012005B0BDE817
:1066A000F0830B880235C3F383131D44BCE7A66057
:1066B00005B0BDE8F083002005B0BDE8F083BDF86B
:1066C00006305A48C3F389184546502D28BF502537
:1066D00065F38F1305F10801ADF8063002F078F884
:1066E00007460028C0D002F0DBF8002301A90822E9
:1066F000384602F005F9F343DBB20133B5EB830F03
:106700004FEA8309F1B277D9A5EB0905033104EB10
:10671000810108234A463846EDB202F0F1F84449B7
:106720002A4609F10803384602F0EAF808F103089E
:1067300006EB9806D4F81834002B6AD1D4F810541C
:1067400065B1EB685A7928463946002A5DD02B6836
:106750001B689847EB681D68002DF2D1384602F09F
:10676000A3F800230DF103008DF8033001F06EF95A
:10677000D4F8183403B9A6609DF8030001F08CF931
:1067800087E7BDF804302948C3F38312062A28BFDF
:106790000622911C62F389138900ADF8043002F0DF
:1067A00017F8074600283FF45FAF02F079F800239E
:1067B000082201A9384602F0A3F8BDF8043013F40A
:1067C000707FB7D06FF00108A8EB05080825F1B27B
:1067D00003312B46042204EB8101384602F090F885
:1067E000BDF80420013608EB0603C2F383129A4277
:1067F00005F10405EBD89DE703312A4604EB81013E
:106800000823384602F07CF890E71D68002D98D1E7
:10681000A4E7384602F048F83BE700BF6C250020AB
:1068200050DF020028DF0200F8CF0200C0DF0200C4
:10683000782500202DE9F04F5E4C87B000230646F6
:106840000DF10B008DF80B300F4601F0FFF8D4E985
:10685000015303F580735B1B012B7DD804F21C48A8
:1068600004F5836A04F214491AE0BDF80E30C3F34C
:1068700089130333090C0BEB930B4846019101F08C
:106880008DFB0199002839D04046C4F808B001F0CA
:1068900059FBD4E9013202F58072D21A012A5CD880
:1068A0000121404601F04EFB504601F067FB48468F
:1068B00001F064FBA368DAB2D11C04EB810014F888
:1068C000211001F0040C490728D404EB8202591C62
:1068D000D2680392C9B204EB810102F00302012ADB
:1068E000C96803F1020B30D0022ABED0002148460D
:1068F000019101F053FB01990028C5D14046C6E73C
:1069000043880EEB9313DAB2D11C04EB810014F828
:10691000211001F0040CBCF1000FD6D0017801F079
:10692000030101290BD0022903F1020E02F1030138
:10693000E6D004EB8100BCF1000FEFD1C5E702887F
:106940000233C2F383121344DDE7BDF80C30C3F306
:106950008313090C9B4490E72B46DAB203320233CF
:1069600005219DF80B0044F82210636001F094F8B3
:106970000021114801F0BCFA80F31000F1006B1CFB
:1069800001F03801DBB2EDB204EB830341F0010109
:106990000004033540EA164641EA8727DE6044F8E2
:1069A000257023781BB1FFF71DFE0028FBD107B02F
:1069B000BDE8F08F6C250020882900202DE9F04FDC
:1069C000634C87B0002306460DF10B008DF80B30A9
:1069D0000F46904601F03AF8D4E9015303F580736D
:1069E0005B1B022B7FD804F21C4904F5836B04F275
:1069F000144A1BE0BDF80E20C2F389120332090CC1
:106A000003EB92035046CDE9003101F0C7FA01993A
:106A100000283AD0009BA360484601F093FAD4E9DD
:106A2000013202F58072D21A022A5DD8012148464D
:106A300001F088FA584601F0A1FA504601F09EFA9A
:106A4000A368DAB2D11C04EB810014F8211001F024
:106A5000040C490729D404EB8202591CD268039222
:106A6000C9B204EB810102F00302012AC96803F1F3
:106A7000020331D0022ABDD000215046CDE90031B9
:106A800001F08CFA01990028C4D14846C5E7438833
:106A90000EEB9313DAB2D11C04EB810014F8211031
:106AA00001F0040CBCF1000FD5D0017801F0030116
:106AB00001290BD0022903F1020E02F10301E6D0F5
:106AC00004EB8100BCF1000FEFD1C4E70288023370
:106AD000C2F383121344DDE7BDF80C20C2F3831226
:106AE000090C13448EE72B46DAB2033203334521F7
:106AF0009DF80B0044F82210636000F0CDFFAB1C42
:106B0000DBB204EB830300211248C3F80C8001F0D0
:106B1000EFF980F31000F1006B1C01F03801DBB2DB
:106B2000EDB204EB830341F041010004033540EA78
:106B3000164641EA8727DE6044F8257023781BB1AA
:106B4000FFF750FD0028FBD107B0BDE8F08F00BF74
:106B50006C250020882900202DE9F04F684C89B071
:106B6000002506460DF113001F468DF81350884688
:106B7000039200F06BFFD4E9015303F580735B1BB4
:106B8000032B00F2828004F21C4904F5836B04F2AB
:106B9000144A1BE0BDF81620C2F389120332090C17
:106BA00003EB92035046CDE9013101F0F7F9029968
:106BB00000283BD0019BA360484601F0C3F9D4E90B
:106BC000013202F58072D21A032A5FD801214846A9
:106BD00001F0B8F9584601F0D1F9504601F0CEF96C
:106BE000A368DAB2D11C04EB810014F821C01CF0B8
:106BF000040F0CF0040128D104EB8202591CD26866
:106C00000592C9B204EB810102F00302012AC968AE
:106C100003F1020332D0022ABCD000215046CDE954
:106C2000013101F0BBF902990028C3D14846C4E7FD
:106C300043880EEB9313DAB2D11C04EB810014F8F5
:106C4000211001F004010029D6D090F800C00CF00A
:106C5000030CBCF1010F0BD0BCF1020F03F1020ECB
:106C600002F1030CE4D004EB8C000029EDD1C3E762
:106C700002880233C2F383121344DCE7BDF8142008
:106C8000C2F38312090C13448CE72B46DAB20332A9
:106C9000043385219DF8130044F82210636000F04E
:106CA000FBFEAA1CEB1CDBB2D2B204EB830C04EBA0
:106CB0008202039B1348D3600021CCF80C7001F0D2
:106CC00017F980F31000F1006B1C01F03801DBB202
:106CD000EDB204EB830341F081010004033540EA87
:106CE000164641EA8821DE6044F8251023781BB15E
:106CF000FFF778FC0028FBD109B0BDE8F08F00BF9A
:106D00006C250020882900202DE9F04F6B4C89B0BC
:106D1000002506460DF113001F468DF813508846D6
:106D2000039200F093FED4E9015303F580735B1BDB
:106D3000042B00F2828004F21C4904F5836B04F2F8
:106D4000144A1BE0BDF81620C2F389120332090C65
:106D500003EB92035046CDE9013101F01FF902998E
:106D600000283BD0019BA360484601F0EBF8D4E932
:106D7000013202F58072D21A042A5FD801214846F6
:106D800001F0E0F8584601F0F9F8504601F0F6F845
:106D9000A368DAB2D11C04EB810014F821C01CF006
:106DA000040F0CF0040128D104EB8202591CD268B4
:106DB0000592C9B204EB810102F00302012AC968FD
:106DC00003F1020332D0022ABCD000215046CDE9A3
:106DD000013101F0E3F802990028C3D14846C4E725
:106DE00043880EEB9313DAB2D11C04EB810014F844
:106DF000211001F004010029D6D090F800C00CF059
:106E0000030CBCF1010F0BD0BCF1020F03F1020E19
:106E100002F1030CE4D004EB8C000029EDD1C3E7B0
:106E200002880233C2F383121344DCE7BDF8142056
:106E3000C2F38312090C13448CE72B46DAB20332F7
:106E40000533C5219DF8130044F82210636000F05B
:106E500023FEA81CEA1C2B1DC0B2DBB204EB800091
:106E6000D2B204EB830C04EB8202039BC3600021CB
:106E7000129B1348D760CCF80C3001F039F880F33E
:106E80001000F1006B1C01F03801DBB2EDB204EB35
:106E9000830341F0C1010004033540EA164641EA8C
:106EA0008821DE6044F8251023781BB1FFF79AFB98
:106EB0000028FBD109B0BDE8F08F00BF6C25002091
:106EC0008829002030B4154DD5F810140446002050
:106ED00071B10B4601E01B6853B1DB681A7982423D
:106EE000F9D101300A28F3D14FF0FF3030BC7047A0
:106EF000E3681871D5F810344BB1DA68E3681268AA
:106F00001A60D5F81034DB681C6030BC7047C5F8D7
:106F10001044E268136030BC704700BF6C2500204D
:106F200038B5084BD3F8104401251D704CB1E36807
:106F30005D71236820465B689847E3681C68002CF5
:106F4000F5D138BD6C25002030B5C38885B0044626
:106F50000D461BBB217A05291ED0627A82B9134ADD
:106F6000A08852F8212003920021FFF701FB039A29
:106F70000F490346284605B0BDE8304001F08AB805
:106F8000A088FFF719FB0B4B0B4953F8202028462C
:106F900001F080F8217AE2E705B030BD074A00929F
:106FA0000749084A284601F075F8D3E7E8D00200FF
:106FB00048D00200C4D0020044D002003CD00200FD
:106FC00024D002001CD002002DE9F04385B04FF020
:106FD000000C0C9C814694F80C8084F80CC00E4682
:106FE0001746184621461D46FFF7AEFF062F09D863
:106FF000DFE807F0042E343B444F1F00494620468B
:1070000001F048F82B7A052B05D06B7A5BB927493C
:10701000204601F03FF8204601F030F884F80C805B
:1070200005B0BDE8F083224A2249204601F032F83B
:10703000EDE7D6E90413F2680393B3680291CDE952
:1070400000324946D6E90023204601F023F8D9E76B
:1070500032684946204601F01DF8D3E7D6E90023FF
:107060004946204601F016F8CCE7B3680093D6E90C
:1070700000234946204601F00DF8C3E7D6E9023265
:1070800001920093D6E900234946204601F002F818
:10709000B8E7D6E90321B3680291CDE90032494649
:1070A000D6E90023204600F0F5FFABE754D00200FC
:1070B0003CD0020044D00200082900D970472DE9D5
:1070C000F04F9B4683B000241B7B8BF80C400D4691
:1070D00006465946104690460193DFF8D0902C4F53
:1070E000FFF732FF05E0325D013400F0D3FF082CDA
:1070F00009D0A54239465846F5D84946013400F032
:10710000C9FF082CF5D12349DFF8A490224C234F66
:10711000584600F0BFFF4FF0000A0DE0D15D11F0BE
:10712000970F08BF2E22214658460AF1010A00F0A7
:10713000B1FFBAF1080F10D0554505D916F80A204D
:107140007E2AEBD92E22EEE7494658460AF1010A7B
:1071500000F0A0FFBAF1080FEED198F80830052B27
:1071600002D098F8093063B90D49584600F092FFF3
:10717000584600F083FF019B8BF80C3003B0BDE84C
:10718000F08F084A0849584600F084FFECE700BF3A
:1071900058D0020064D0020068D00200D5DD0200A1
:1071A00054D002003CD0020044D0020060D0020063
:1071B00050D0020038B5174B1D783DB3164B1968F7
:1071C000C0B200230C4604E00133AB4204F10804D2
:1071D0001CD011F833209042F6D102F0B9FA63784E
:1071E000A3F10103B3FA83F35B09834200D038BDF6
:1071F0000A4BD3E900231343F9D1094B0948196815
:107200000022BDE83840490800F0DABB00231B78B3
:10721000FFDE00BF242A0020682A0020502A002018
:10722000282A0020302A00202DE9F04FDFF8548270
:1072300098F8003083B0002B00F01981DFF84892F5
:107240008C4F8D4E00254FF0010A3C6814F8350034
:1072500002F07EFA04EBC50314F835405B784FEA80
:10726000540C14F0010E16F80C10A3F10103B3FA3C
:1072700083F314BF0A0901F00F025B09042A00F22C
:10728000A080DFE802F0725D32200300834240F00C
:10729000AB80BEF1000F0CBFF0230F2303EA010304
:1072A0000CBF03213021194306F80C1098F8002078
:1072B00001359542C9DBD9E90023134340F0CD8065
:1072C00003B0BDE8F08F83427BD0BEF1000F0CBF4E
:1072D000F0230F2303EA01030CBF042140211943CB
:1072E00006F80C1098F80020E2E783426CD1BEF15A
:1072F000000F0CBFF0230F2303EA010398F80020CE
:107300000CBF03213021194306F80C10002AD2D0FB
:10731000D7F800C00023614603E0934201F1080161
:10732000C6D01CF83300A04203F10103F5D14B682D
:10733000002BBDD020460121984798F80020B7E7E0
:10734000834219BF0020034602232020BEF1000F14
:107350000CBFF0220F2201EA020118BF03460B43C3
:1073600006F80C3098F80020A2E7834229D1BEF13C
:10737000000F14BF0F23F02303EA010314BF1021F1
:10738000012119430DF107004FF0000306F80C101E
:107390008DF8073000F05AFBD9E90032A4F1200142
:1073A000C4F120000AFA01F12AFA00F001430AFAB6
:1073B00004F4114323439DF80700C9E9003100F0AC
:1073C0006BFB98F8002073E7BEF1000F0CBFF023B1
:1073D0000F2303EA01030CBF01211021194306F812
:1073E0000C1098F8002063E7BEF1000F14BF0F23C4
:1073F000F02398F80000194006F80C1098B1D7F85F
:1074000000C00023624603E0834202F108020AD072
:107410001CF83310A14203F10103F5D1536813B1F5
:107420000021204698474FF000030DF107008DF82A
:10743000073000F00BFBD9E90032A4F12001C4F1C0
:1074400020000AFA01F12AFA00F001430AFA04F4D2
:1074500022EA010123EA0403ADE7084B0848196852
:107460000022490800F0ACFA03B0BDE8F08FDFF865
:10747000189020E7682A0020582A0020282A002097
:10748000302A0020242A0020502A0020092A43D92B
:107490002DE9F04182B0144606460D4602F00CF884
:1074A000002832D0214A2249224B16600D70224812
:1074B0001C600021102205F057FD204B0020002108
:1074C0006C1EC3E90001E4B245B3DFF87C8006EB33
:1074D000C404032702E0A64220D01C469DF80630D3
:1074E000A57820788DF8047023F00703424601A99F
:1074F0008DF806308DF8055001F0E8FFA4F108037F
:107500000028E8D002B0BDE8F08101F085FF002836
:10751000C8D002B0BDE8F08107207047084A09488A
:10752000002100F03FFA02B0BDE8F081682A002097
:10753000242A0020282A0020582A0020502A00202F
:107540002972020008D10200B571020070B5084D21
:107550002B785BB1074E00243368012113F8340007
:1075600002F098F82B780134A342F5D8002070BDC2
:10757000242A0020682A002000B585B00346002197
:1075800001AA44F20100CDE90111039300F004F8CF
:1075900005B05DF804FB00BF10B572B6FFF7C0FC84
:1075A000FFF720F80028FBD1104B114C1149E41AC9
:1075B000E408240444F00100FFF73CF90E4B1B687B
:1075C000DB0700D500BE0D4944F00200FFF732F999
:1075D000BFF34F8F0A490B4BCA6802F4E0621343B2
:1075E000CB60BFF34F8F00BFFDE700BF28DF020075
:1075F00050DF02000CD10200F0ED00E018D10200D3
:1076000000ED00E00400FA05D0E90223D1E902010F
:10761000994208BF90422CBF01200020704700BF54
:107620002DE9F04F2DED028B85B0064600F060FB92
:1076300040B1B54AD2E9003113F1807341F1000144
:10764000C2E900310021304600F06EFBAF4C60B162
:10765000236853B1AE4B25681B7823B11DB12B7F36
:10766000002B40F01C81002323600121304600F0F4
:107670005BFB002840F0F680A64803A900F0DAFB87
:1076800078B3A54DDFF88882A24F0BE0002B00F005
:10769000CD8003A9384600F0FDFB03A9384600F071
:1076A000C9FBF0B10378012B12D0022BEED1284692
:1076B0004FF0000901F0EEFA30B180F81C90284636
:1076C00001F0E8FA0028F8D1012388F80030E0E75B
:1076D00041682368994200F0BA80284601F0E4FA34
:1076E000D7E7DFF834828D4FDFF81C9208EE106A7E
:1076F00037E0404601F0CEFA05463846AB68EA6806
:107700000193009200F020FB854E8446D9E90001E8
:10771000D6E9002310EB0C0041F10001994208BFAB
:107720009042DDE9002303D210F1807041F10001A5
:10773000B3EB000A62EB010BBAF1010F7BF100031E
:1077400029DBBAF5350F6BD2AA684FF496030021F6
:10775000384600F047FA00285AD00D281FD00023E1
:107760002360404601F09CFA002873D02368002B68
:10777000BFD02368D0E90201D3E90223994208BFB0
:10778000904248D223681B7F002BB2D0216840462C
:1077900001F06CFAADE70021384600F0B9FA5C4B15
:1077A0001B78002BDBD02B7F002BD8D0384600F085
:1077B000CBFA8446D9E90001D6E9002310EB0C008E
:1077C00041F10001994208BF904203D210F180704C
:1077D00041F10001D5E90223994208BF904259D3F3
:1077E0002B6903B92B77D5E905309847296900291A
:1077F000B5D02B7F002BB2D0D5E90223521843F12C
:107800000003C5E902232946404601F02FFAA6E706
:107810002368BBB1256005B0BDEC028BBDE8F08FDD
:10782000384600F091FA3F4A02448EE743681A7FD7
:10783000002A7FF42EAF01221A774168284601F012
:1078400015FA26E718EE100A00F09EF9E2E7002389
:1078500023601EE72368002BDDD118EE100A00F02C
:1078600097F9D8E72D482E4D00F06EFA264BD3E954
:107870000089D5E9002318EB000849F10009994572
:1078800008BF904503D218F1807849F10009C5E995
:107890000089F1E62946404601F0E8F95FE71F4814
:1078A00000F052FA184A1E4BD2E90089D3E90023AE
:1078B00018EB000849F10009994508BF904503D22B
:1078C00018F1807849F10009D5E90223994508BFEC
:1078D000904529D32B6903B92B77D5E90530984713
:1078E000296900293FF4BFAE2B7F002B3FF4BBAECC
:1078F000D5E90223521843F10003C5E902230648E3
:10790000294601F0B3F9AEE6702A0020F02A0020E3
:10791000782A0020D42A002038D10200D41D00206B
:10792000E82A0020FFFFB4000248294601F09EF932
:1079300099E600BF38D1020010B5134B13491B68FC
:10794000134882B058220193082300F01DFA044620
:1079500010B1204602B010BD0E4A0F4801A900F038
:10796000B3F804460028F4D10B48012100F0B6F921
:1079700001231946094A084800F00EF9084B012274
:1079800020461A7002B010BD34D102007C2A0020BB
:10799000D42A002021760200D41D0020FFFF7F00A2
:1079A000782A00204AB1A1F101010368B1FA81F1FE
:1079B0004909C3E90412002070470720704700BF3F
:1079C000037F0BB100207047F0B5826183B004469D
:1079D0001A480D4600F0B8F9194B1A49D3E90023AB
:1079E000D1E90067121843F10003BB4208BFB2425D
:1079F00003D212F1807243F100035219216943F15D
:107A00000003C4E9022301B125610F4801A900F078
:107A1000D3F948B100254460057001A90A4800F077
:107A2000F9F920B903B0F0BD042003B0F0BD03485C
:107A300000F08EF9284603B0F0BD00BFD41D002031
:107A4000702A0020E82A0020D42A002070B4EFF326
:107A5000108472B60D4B9A68AAB90D490D4E0125D6
:107A60009D60D1F8805035401D60C1F88060D1F82C
:107A700084505D604FF0FF33C1F88430027004B968
:107A800062B670BC704701230370F8E7D02E002067
:107A900000E100E0FC06FFBD094B9A687AB170B9BD
:107AA00010B4EFF3108172B6064A1C6814605C686B
:107AB0005460986001B962B65DF8044B7047704736
:107AC000D02E002000E100E070B5274C4379274E0E
:107AD00004EBC30546F823202D79002D37D1036828
:107AE0000A88C3F8082590F904308A78002B26DB31
:107AF00003F1604303F561435201D2B283F80023DE
:107B000090F90430002B07DB194903F01F0501220F
:107B10005B09AA4041F823204279164B164D44F8E0
:107B20003200581B04EBC204C008012300041349AF
:107B3000237140F00300FEF77DFE002070BD104968
:107B400003F00F0352011944D2B20A76D8E70A4B68
:107B500008480C49C01AC008000440F00200FEF7B3
:107B600069FE082070BD00BFF42A0020FC2A002016
:107B700000E100E060DF020028DF020068D10200BF
:107B8000FCEC00E044D10200036801221A60704757
:107B9000036801225A607047F0B404684FF48035DE
:107BA0008D40C4F80853066801F15004C6F84853E4
:107BB000A4000668A4B20027375182B03659046881
:107BC000019601F5A87122F07F42019E44F8212020
:107BD0000268C2F8445313B10368C3F8045302B0F7
:107BE000F0BC70472DE9F04704464FF4803600683A
:107BF0008E40C0F848632068C0F80863206800EB36
:107C000081058A46D0F80415D5F84005C5F8401519
:107C10000AF15005AD002768ADB24FF0000847F8F3
:107C2000058082B0401A7F59009720F07F400128DC
:107C300022F07F479946009A41D02268D2F8045535
:107C4000C2F844637A1B22F07F42012A0AF5A87128
:107C500025D0226842F821702068D0F804557A1B9C
:107C6000C9F1FF13013A03F57F4322F07F429342AB
:107C700011D342B1C0F8446323680020C3F8046301
:107C800002B0BDE8F087013740F821702068D0F8D5
:107C900004359D42EED00D2002B0BDE8F08720688B
:107CA0000D4B013740F8217043F001034FF4806021
:107CB00098472068D0F804359D42DBD0EBE7064AB0
:107CC0004FF4806042F001029047226842F805803C
:107CD00052590192019AB0E780D102000268022352
:107CE000C2F8443311B10268C2F80433704700BFD0
:107CF0000368D3F8040100B97047002282B0C3F8CA
:107D00000421D3F804310193019B012002B0704794
:107D100002684FF4803303FA01F1C2F84813036894
:107D2000C3F80813704700BF50318900036889B257
:107D3000585800B9704700225A5082B05B580193DE
:107D4000019B012002B070470368D3F80405704717
:107D500090F90430002B09DB5A090548403203F042
:107D60001F03012101FA03F340F82230704700BFDE
:107D700000E100E0024A034B10681B68184700BF8F
:107D8000F42A0020FC2A002099B110B4B2FBF3F4CD
:107D900003FB1424A4B244B9C0E9001484608281B6
:107DA000C38120465DF8044B704709205DF8044B01
:107DB00070470E20704700BF30B482B050E8013FDA
:107DC0009DB2C48925448489A54228BF2D1B0489FE
:107DD000A54202BFBFF32F8F002207E0C5EA0305CB
:107DE00040E80154002CE9D14FF001028DF8032046
:107DF0000193019B9DF803200B602AB10B8800685A
:107E0000184402B030BC704702F0FF03184602B0BD
:107E100030BC70470A884B889A4201D000207047D6
:107E200050E8012FC2EA024240E80123002BF7D1BB
:107E30000120704730B482B050E8023F1FFAA3F52A
:107E4000C488A54202BFBFF32F8F00220DE0C48972
:107E500025448489A54228BF2D1BC3EA054540E877
:107E60000254002CE8D14FF001028DF80320019359
:107E7000019B9DF803200B602AB14B8800681844D1
:107E800002B030BC704702F0FF03184602B030BCAD
:107E9000704700BF0A884B889A4201D00020704783
:107EA00050E8022FC2EA224240E80223002BF7D119
:107EB000012070474A09012301F01F0100EB8200F5
:107EC00003FA01F100F022B801F01F020123490971
:107ED000934000EB8100D94300F026B84B0901F034
:107EE0001F0150F82300C84000F00100704700BF98
:107EF00010B4034653E8000F0A4643E8002494F008
:107F0000000FF7D15DF8044B704700BF10B4034673
:107F100053E8002F42EA010043E8000494F0000F08
:107F2000F6D15DF8044B704710B4034653E8002FB8
:107F300002EA010043E8000494F0000FF6D15DF876
:107F4000044B704710B4034653E8002F02EB0100C6
:107F500043E8000494F0000FF6D15DF8044B70473D
:107F600010B4034653E8002FA2EB010043E80004DD
:107F700094F0000FF6D15DF8044B704710B403463F
:107F8000012253E8001F41EA020043E8000494F094
:107F9000000FF6D15DF8044B704700BF10B40346E4
:107FA000002253E8000F00EA020143E8001494F0B5
:107FB000000FF6D15DF8044B704700BFB8B130B484
:107FC000D0E90112521A0468D2B2531E2160DBB20A
:107FD00042B101680A685C1E551C0D601370E3B263
:107FE000FF2BF6D103680020187130BC70470E20BB
:107FF000704700BFF0B583B0044600250DF10700BF
:108000008DF80750FFF722FDD4E900311A688A4243
:1080100010D9511E19602168A3680F6812F8015C1D
:108020000A79268AE068DB1BDBB29A4206FB05056B
:1080300038BF0B719DF80700FFF72EFD284603B0EF
:10804000F0BD00BF30B5054683B000230DF1070039
:108050000C468DF80730FFF7F9FC2A681368591CA5
:108060001160E9682A8A641AB4FBF2F41C709DF866
:108070000700FFF711FD03B030BD00BF826842B1B9
:1080800010B5044643690168006998470023A3605E
:1080900010BD70470EB400B582B0039921B104AB96
:1080A00001AA019300F0ACF802B05DF804EB03B054
:1080B000704700BF2DE9F04F164683B0B142DDE9AD
:1080C0000C920F4605469A46C0F095800B464FF03D
:1080D0000108B3FBF6F39E4208F10108F9D9D04537
:1080E00038BFD04612F00103019302D1B9F1000F5D
:1080F0005ED1AA68012403E00AF1FF3A06FB04F40A
:10810000BAF1010FF8D8B7FBF4F39E42F6D9DFF8C5
:10811000ECA007E0B442B4FBF6F31AD3AA681C46FD
:10812000B7FBF3F31AF803B0BBF10A0F04FB1377A4
:1081300028D02B68511CA96003F802B0D5E90132A0
:108140009A42E7D32846FFF799FFB4FBF6F3B4420F
:10815000E4D2019B9BB1B9F1000F10D02024C84597
:1081600009F1FF390BD2AB682A68591CA960D454B5
:10817000D5E901329A4214D2B9F1000FEFD103B020
:10818000BDE8F08F511C2B68A9604FF00D01995488
:10819000D5E901329A42CCD32846FFF76FFFAA688F
:1081A000C7E72846FFF76AFFB9F1000FD7D1E6E726
:1081B00093071AD42024AA68C84502F1010199D274
:1081C0002B68A9609C54D5E901329A4209F1FF3924
:1081D00003D2B9F1000FEFD18CE72846FFF74EFF2D
:1081E000AA68B9F1000FE7D184E7BAF1000F0CBF1C
:1081F00030242024DFE74FF0010870E788D1020027
:10820000002900F054822DE9F04FDFF8B8950C7882
:1082100085B0064690460D464FF00D0A10E00A2C38
:10822000B36800F0AD803268591CB160D454D6E90F
:1082300001329A4280F0A0802C78002C00F08780D8
:108240000135002C00F08380252CE8D12946002739
:108250000D4611F8012B2D2A00F08880302A00F0FD
:1082600088802B2A7AD02A2A00F09980A2F1300344
:10827000092B4FF000040BD804EB840402EB4404F8
:1082800015F8012FA2F13003092BA4F13004F3D922
:108290002E2A00F09080002301E015F8012F02F053
:1082A000FB016829F9D0252A00F07781583AD1B22C
:1082B000202947D8202A45D8DFE812F035014400AC
:1082C000440044004400440044004400440044008E
:1082D00044004301130144004400440044001301DE
:1082E000440044004400440044004400D2004400E0
:1082F0004400A200440094004400440035010120E1
:108300009842024638BF1A460292002C40F0508133
:10831000B80740F16E81002B40F04E821C46BBF145
:10832000000FC0F20A827A0700F11A8207F00302F6
:10833000022A00F0EA81CDE9004759460A22304678
:10834000FFF7B8FE01352C78002C7FF479AF337B32
:10835000002B40F01C8105B0BDE8F08F0D4611F8F0
:10836000012B2D2A47F004077FF478AF47F001076F
:108370006EE747F002076BE73046FFF77FFE5BE7EB
:108380003268591CB16002F803A0D6E90123934278
:10839000FFF449AF3046FFF771FEB36843E7D8F802
:1083A00000301A1DC8F800206A781C682E2A05F1D2
:1083B00001057FF470AF6A78A2F13003092B05F153
:1083C00001054FF000033FF66AAF03EB830302EBB6
:1083D000430315F8012FA2F130010929A3F130035D
:1083E000F3D95CE7D8F80020111DC8F80010116817
:1083F0003046CDE900470A22FFF75CFE0135A2E7CF
:10840000D8F800301A1DC8F8002017F00107D3F87B
:1084100000B040F0F080BBF1000F03D0584604F0EC
:10842000B5FD0746BC4240F24381002C00F040817C
:10843000202205E0BC4200F03B81002C00F0388196
:10844000B1683368481CB0605A54D6E9013098428C
:1084500004F1FF34EED33046FFF710FE2022E9E7A7
:10846000D8F80020131DC8F80030B36831681768C9
:10847000581C3022B060CA54D6E90123934280F0E0
:10848000EF803268581C7821B060D154D6E90132AF
:108490009A4280F0E0800F2F03D93B461B090F2B37
:1084A000FCD84FF0805406E00F2C4FEA14137FF6EF
:1084B00049AFB2681C46B7FBF4F319F803B0BBF13F
:1084C0000A0F04FB137754D03368511CB16003F8D2
:1084D00002B0D6E901329A42E6D33046FFF7CEFD2C
:1084E000E2E7D8F80020111DC8F80010D2F800B05B
:1084F0008BEAEB72A2EBEB72092A7FF700AFDFF891
:10850000C8C2012011466329ACFB02E200F1010060
:108510004FEAD202F6DC9842024638BF1A4602926F
:10852000002C45D1F4E6D8F80020111DC8F8001041
:1085300011683046CDE900471022FFF7BBFD013539
:1085400001E7D8F800301A1DC8F800201C78B3687D
:108550000A2C00F011813268591CB160D454D6E95C
:1085600001329A42FFF4EEAE3046FFF787FD013547
:10857000E9E63368511CB16003F802A0D6E9013284
:108580009A42A1D33046FFF779FDB2689CE73046A6
:1085900005B0BDE8F04FFFF771BDB3683168581CF6
:1085A000B060CA54D6E901329A42DDD20135CAE63A
:1085B000BBF1000F59DB7A0757D4B80702D5002B5F
:1085C0003FF4ADAEF9073FF5AAAE94B1202202996F
:1085D000A142BFF4A4AEB168481CB06030684254F8
:1085E000D6E90101814204F1FF3480F0D480002CEF
:1085F000EDD1002493E69BF80030002B00F0E080E2
:10860000B0685F46CBF101020A2B02EB070B3CD0AE
:10861000411CB16031680B54D6E90130984226D232
:1086200017F8013F002BEFD15C457FF68BAE20277A
:1086300002E05C453FF486AEB2683368511CB1601D
:108640009F54D6E901329A4204F1FF34F1D3304607
:10865000FFF714FDEDE73046FFF710FDB2681AE7AB
:108660003046FFF70BFDB3680BE7013CA5E730464A
:108670000292FFF703FD17F8013F002BD4D0029AB6
:10868000B0680A2B02EB070BC2D1411CB160316804
:1086900001F800A0D6E901108842B9D33046CDE9EF
:1086A0000232FFF7EBFCDDE90232B068B0E7704759
:1086B0009BF80040002C3FF445AE0A2CB0680ED069
:1086C0003368421CB2601C54D6E90130984214D27F
:1086D0001BF8014F002C3FF435AE0A2CF0D1336863
:1086E000421CB26003F800A0D6E901309842E7D3FB
:1086F0003046FFF7C3FCB068E2E73046FFF7BEFC48
:108700001BF8014F002CD8D11CE6002B7FF413AED0
:108710008CB130220299A142BFF40DAEB168481C61
:10872000B06030684254D6E90101814204F1FF345F
:108730003BD2002CEED10024FDE5B1684A1CB260AA
:1087400032682D205054D6E901219142CBF1000B23
:10875000FFF4ECAD30460393FFF790FC039BE5E597
:10876000B1684A1CB26032682B205054D6E901210E
:108770009142FFF4DBADEDE73268591CB16002F8BD
:1087800003A0D6E901239342FFF4E5AE3046FFF79C
:1087900075FCB368DFE630460393FFF76FFC039B7D
:1087A0002022002C7FF413AF23E730460393FFF71A
:1087B00065FC039B3022BCE7F9073FF5B0AD18E735
:1087C0009B4631E788D10200CDCCCCCCFFF7F6BB7D
:1087D0002DE9F041058A0331043D4E198046B6FB70
:1087E000F5F6FFF707FCA0B3F6B24FF48073013E35
:1087F0000446C580C0F8008083802BD00346002546
:1088000008E06279AE4202F1010262713860C0F89C
:1088100000801FD040461F46FFF7ECFB01350346A2
:108820000028EED16779791E17D02246013399428C
:108830001268FBD1D2F800805FB12668002501E004
:1088400034463668214601354046FFF7FBFBAF4210
:10885000F6D800242046BDE8F08120682146FFF7C5
:10886000F1FBF6E7F8B546790146701E13D00A46CB
:108870000023013398421268FBD1176856B10D6886
:10888000002401E029462D6801343846FFF7DAFB61
:10889000A642F7D8F8BDBDE8F8400868FFF7D2BB9C
:1088A00004300121FFF74EBB2DE9F04101210446C0
:1088B0000430FFF755FB10F0FF0301D0BDE8F08155
:1088C0006779791E16D02246013399421268FBD18E
:1088D000D2F80080002FF1D02668002501E0344650
:1088E0003668214601354046FFF7ACFBAF42F6D86B
:1088F000BDE8F08120682146BDE8F041FFF7A2BB4A
:108900002DE9F8430546C6884079144606FB00F277
:10891000043A04EB030C1F1D624538BFD41ABE4253
:108920008846B7FBF6F106FB117002D801392D68B5
:10893000FCD1371AA74228BF27469CB14FF0000947
:108940000430E41B28443A4608EB090104F0FEFA1F
:10895000A642B9442D6837464FF0000028BF27468D
:10896000002CEDD1BDE8F8832DE9F8430546C68813
:108970004079144606FB00F2043A04EB030C1F1D79
:10898000624538BFD41ABE428846B7FBF6F106FBF3
:10899000117002D801392D68FCD1371AA74228BFBF
:1089A00027469CB14FF0000904302918E41B3A46D1
:1089B00008EB090004F0CAFAA642B9442D6837460C
:1089C0004FF0000028BF2746002CEDD1BDE8F8830A
:1089D00041DF7047064A074B10B5002414701C6035
:1089E000BFF35F8F0449054800F02AF9204610BD07
:1089F000082B00200C2B0020A4D10200002B00200B
:108A000000B583B000230DF107008DF80730FFF7A4
:108A10001DF8F1EE103A23F09F03E1EE103ABFF398
:108A20005F8F0B4B4022C3F884219DF80700FFF7AE
:108A300033F804F0BFF828B920BF40BF20BF03B00F
:108A40005DF804FBFFF7C4FF03B05DF804FB00BF53
:108A500000E100E0F0B5044683B000250DF1070009
:108A60000E468DF80750FEF7F1FF2368A2681868DC
:108A70005968914238BF4D1CA84212D058685968B5
:108A80008A420BD800225A60E268531E072B19D87D
:108A9000DFE803F04540183B1818183301315960DE
:108AA000F2E7217C002941D158685D68AA423AD892
:108AB00059602268A16813688B4234BF01330023D8
:108AC0001360E1E76368314600FB023004F03EFAD0
:108AD0002268136851688B4282BFA0680130091870
:108AE000CB1A91689DF80700994238BF9360FEF752
:108AF000D3FF0024204603B0F0BD6368D6E90067C9
:108B000003EBC000C0E90067E2E76368326843F83E
:108B10002020DDE76368328823F81020D8E76368F7
:108B200032781A54D4E701355D60C2E79DF807003A
:108B3000FEF7B2FF0424204603B0F0BD70B5044632
:108B400082B000230DF107000D468DF80730164660
:108B5000FEF77CFF236818685968884211D01968AD
:108B60002EB91A68A068824238BF561C1E60E2689F
:108B7000531E072B0DD8DFE803F0411A0C260C0C0E
:108B80000C329DF80700FEF787FF0524204602B04F
:108B900070BD6368284601FB023104F0D7F99DF8E7
:108BA0000700FEF779FF0024204602B070BD63681D
:108BB0009DF8070033F811302B80FEF76DFF00247D
:108BC000204602B070BD63689DF8070053F821305D
:108BD0002B60FEF761FF0024204602B070BD636881
:108BE0009DF8070003EBC101D1E90023C5E900238B
:108BF000FEF752FF0024204602B070BD63689DF866
:108C000007005B5C2B70FEF747FF0024204602B094
:108C100070BD00BF036818685B68C01AB0FA80F0C6
:108C200040097047826800239360826813618268FC
:108C300053618268D36082685360826813607047B2
:108C400001600B6843604A68934204BF002343609D
:108C5000704700BF436843B1026891680B444360AA
:108C60005268934204BF00234360704770B5446864
:108C7000064620680D4618B908E02468206828B127
:108C8000B368294698470028F7D1206828602560F6
:108C900070BD00BF4368186808B102681A60704769
:108CA00043681868704700BF4368186818B908E03F
:108CB0000346006828B18142FAD10A681A6001208F
:108CC00070477047114910B4A1F5947205E052F84D
:108CD0003330984238BF21460CD28C1AE30F03EB95
:108CE000E4035B10914202EBC304F0D808485DF83E
:108CF000044B704702D904F10802EEE76068044BA8
:108D00005DF8044B002808BF18467047E4D60200FF
:108D1000A8D5020030B4A54B1B68591C04BFA44B56
:108D20001B78062B05D1A34BA34A1B68C3F304236E
:108D300013609F4B1B78062B00F0F8809B4B1B6841
:108D40005A1C04BF9A4B1B78062B05D19B4B9C4A9F
:108D50001B68C3F342331360954B1B78062B00F05E
:108D6000D280924B1B685D1C04BF914B1B78062B75
:108D700008D14FF080430022C3F80C21C3F8102122
:108D8000C3F838258A4B1B78062B00F09C80874B54
:108D90001A68541C1FD08B4B062A1B6823D08A4AA2
:108DA000D2F8883043F47003C2F88830BFF34F8F95
:108DB000BFF36F8F4FF01023D3F80022002AC0F2C8
:108DC0002F81D3F80432002BC0F22A817F4B804AD6
:108DD0001A6030BC704776497E4B09781B680629BB
:108DE000DDD1C3F30313033B032B40F2B6804FF0F6
:108DF0008052794BD2F80414C3F82015D2F8081425
:108E0000C3F82415D2F80C14C3F82815D2F810149E
:108E1000C3F82C15D2F81414C3F83015D2F818146E
:108E2000C3F83415D2F81C14C3F84015D2F8201436
:108E3000C3F84415D2F82414C3F84815D2F82814FE
:108E4000C3F84C15D2F82C14C3F85015D2F83014CE
:108E5000C3F85415D2F83414C3F86015D2F8381496
:108E6000C3F86415D2F83C14C3F86815D2F840145E
:108E70004E48C3F86C15D2F844140268C3F8701554
:108E8000501C00F08C80062A89D1544B474A1B683D
:108E90005349126803F04F030B60511C62D0062A3D
:108EA0007FF47DAF4FF08043D3F80034DA0765D408
:108EB000444B1B68033B032B49D94A4A136843F4CC
:108EC000806313606BE7434B1B68C3F30313033BDF
:108ED000032B3FF65CAF444AD25C12B1434A0321F4
:108EE0001160434AD35C002B3FF451AF414A424CDE
:108EF0004249434B05201060012500203F22256098
:108F000008601A6043E7334B1B68C3F30313033B4A
:108F1000032B3FF626AF3B4AD35C002B3FF421AF37
:108F2000394AD36823F08073D3601AE7294B1B6852
:108F3000C3F30313033B032B3FF600AF334AD35C69
:108F4000002B3FF4FBAE324B324A1A60F6E6324A4F
:108F5000D35C002B3FF423AFAFE73049CB5C002B51
:108F60008ED044E7124B1B78062B7FF418AF4FF0DE
:108F70008043D3F80034DB077FF511AF0B4B1B6840
:108F80004FF080426FF00101062BC2F800147FF40D
:108F900006AF0C4B1B68033B032B8ED8D7E7044B63
:108FA0001B78062B3FF471AFF9E600BF30010010CB
:108FB000E00F00F02403001040350140440200108F
:108FC0003C0500403401001000ED00E0DC1D0020F5
:108FD0000090D003E80F00F000C0004058020010DD
:108FE000E40E00403C170040ECD60200A005004013
:108FF000ECD602001056004088560040185600403B
:1090000014560040ECD60200F0ED00E0ECD6020071
:1090100074C007400DF0ADBAE8D60200E4D60200F5
:10902000184A0123C2F80435D2F80034002BFBD0D3
:109030004FF010231521134AC3F80012D2F8003460
:10904000002BFBD04FF0102315210E4AC3F8041259
:10905000D2F80034002BFBD000230A49C2F80435B3
:10906000D1F80034002BFBD0BFF34F8F0649074BDC
:10907000CA6802F4E0621343CB60BFF34F8F00BFB6
:10908000FDE700BF00E0014000ED00E00400FA054C
:10909000044B195C4FF0A04201238B40C2F80C3501
:1090A000704700BFF0D60200044B195C4FF0A0429D
:1090B00001238B40C2F80835704700BFF0D602008C
:1090C000C20730B41AD54FF0A0430322C3F8442797
:1090D0004FF40035C3F848274FF48024C3F84C27D9
:1090E0004FF40021C3F850274FF48012C3F80855FD
:1090F000C3F80845C3F80815C3F8082583070AD53F
:109100004FF0A0430C22C3F83427C3F83827C3F824
:109110003C27C3F8402730BC704700BF10B568B982
:109120000E4CA368012262703BB1D3E900230020FA
:10913000A2609847A368002BF7D110BD0128FCD18D
:10914000064C2369A070002BF7D0D3E9002301203F
:10915000226198472369002BF7D110BD102B002006
:1091600070B910B5074CA368012262703BB1D3E916
:1091700000230020A2609847A368002BF7D110BD00
:10918000704700BF102B002030B5012883B004D0F9
:10919000032821D0B0B103B030BD294C00230DF11C
:1091A00007008DF80730FEF751FC23786BB3E368B6
:1091B0009DF8070001330122E360A270FEF76CFC0A
:1091C00003B030BD1F4B0122C3F88020BFF34F8F87
:1091D000BFF36F8F03B030BD194C00F0B9F8002316
:1091E0000DF107008DF80730FEF730FCE368013B16
:1091F000E360E3681BB9144BD3F80054C5B19DF884
:109200000700FEF749FC03B030BD10486360A3605F
:109210002361E36000F090F803F0CCFC60B10A4AEF
:1092200001232370D2F80024002AC0D0A370BEE727
:1092300000F0A0F8A570E2E700F08AF8EFE700BFC1
:10924000102B002000E100E0000001401D91020011
:1092500030B585B0047845688DF80040D0E902400B
:10926000064A074B039053F82130019552F821101C
:109270008DF808406846984705B030BD242B002083
:10928000282B002030B585B0047845688DF8004063
:10929000D0E90240064A074B039053F8213001956C
:1092A00052F821108DF808406846984705B030BD47
:1092B000242B0020282B0020F0B51A4B90F800C07A
:1092C000194C1A4D91F81DE044F82C200746086906
:1092D00045F82C0003F80CE00C4616460FCC89B07C
:1092E0006D460FC594E80F0085E80F00CDF810C05B
:1092F000BEF1000F0AD0002E0D4A694607F10400A6
:1093000008BF324600F0C8FF09B0F0BD002E094A80
:10931000694607F10C0008BF324600F061FD09B054
:10932000F0BD00BFDC2E0020282B0020242B0020C5
:109330005192020085920200044A137923B9012157
:109340001060918018467047852070472C2B0020B4
:10935000074B1A68D20704D4C02283F800230122E5
:109360001A604FF080430122C3F81825704700BFF0
:1093700000E100E010B40B4B0B494FF0804200209D
:109380000224C2F8084383B018601B6801930123CC
:1093900001980B60D2F81834DB03FBD403B05DF8FE
:1093A000044B7047040100400C00004010B5174BFF
:1093B0001A6882B062B10021154A19601B685079A1
:1093C00000934FF080410123009CC1F8083398B10D
:1093D000104B1A68BAB100221A601B6801934FF053
:1093E000804202210A4B0198C2F808131B68012031
:1093F00002B0BDE810401847116853718847054B0B
:109400001A68002AE7D102B010BD00BF0001004079
:109410002C2B002004010040F0B5224C94F8583069
:1094200083B0002B3BD14FF0FF3121FA03F2D2077A
:1094300048BFE21803F1010348BF82F83010202B27
:10944000F3D14FF0FF334FF0FF364FF0FF370422D8
:10945000002115482365C4E90233C4E90433C4E993
:109460000633C4E90833C4E90A33C4E9006703F0EA
:109470007BFD0E4BC02283F8062340221A600C4B62
:109480000C4A002018601B680193019D01214FF0D8
:10949000004384F85810C2F8043303B0F0BD08202C
:1094A00003B0F0BD382B00208C2B002000E100E041
:1094B0007C61004000600040034B93F85800003886
:1094C00018BF0120704700BF382B0020F0B46F4B4D
:1094D0001D1895F93040002C61DA8C78A707C4F389
:1094E000400C53D41C6A013400F0C8805C6A01341B
:1094F00000F0BD800C260A2453F82450013552D0C8
:10950000651CB5423FD253F82570013700F0A780A3
:10951000A51CB54237D253F82570013700F09F8063
:10952000E71CB7422FD253F8275001353AD0271DF8
:10953000B74228D253F82750013533D0671DB742C0
:1095400021D253F8275001352CD0A71DB7421AD28B
:1095500053F82750013525D0E71DB74213D253F8F1
:10956000275001351ED004F10807B7420BD253F83B
:109570002750013516D00934B44204D2DC6A0134D4
:1095800008BF0B240FD00420F0BC70471C680134C6
:1095900067D05C68013460D008260224ACE708205C
:1095A000F0BC70473C461E1865B243F8242086F88C
:1095B0003050BCF1000F02D11C4484F848008A7876
:1095C000540714D4D6073ED44C784FF0A04600F58B
:1095D000E072A40046F822402D4EC40800F0070CAB
:1095E000375D012202FA0CF23A4332558A7812F0C2
:1095F00002021CD0AB0003F1804303F5C04309789D
:10960000D3F8104524F4473424F44074C3F81045CB
:1096100002020904D3F8100501F4403102F4F852B3
:109620000A430243C3F810250020F0BC7047083DF0
:109630002B44087893F8501041EA801183F85010B9
:109640001046F0BC7047820002F1A042D2F80047F9
:1096500024F00204C2F80047BEE70124A3E72C4629
:10966000A1E7002485F830401A602546A7E70926BF
:1096700085F830605A62344635469DE7082685F8FD
:1096800030601A623446354696E700BF382B00201A
:109690008C2B002070B42C4C251883B095F9302009
:1096A000072A1CDD224492F848309B09032B40D046
:1096B000012B0CBF4FF400334FF44033800000F116
:1096C000A040D0F8002722F44032C0F80027D0F89C
:1096D00000271343C0F8003703B070BC7047D3B203
:1096E000072BF9D8900000F1804000F5C04002F14E
:1096F00040039B00D0F810659BB203F1804303F553
:10970000C04346F00106C0F81065002018601B68D1
:109710000193019B0029DFD095F9303054F82330B4
:10972000002BD9D00949012303FA02F2C1F804231E
:10973000D2E74FF0A043D3F81035C34003F0010344
:1097400002331B04BAE700BF382B00200060004042
:109750004FF0A043D3F8103523FA00F000F00100D9
:10976000704700BFF0B585B0C84A00230193116867
:10977000012900F0E7811E46C54B1A68012A00F056
:10978000D381C44B1A68012A00F0C081C24B1A6809
:10979000012A00F0AD81C14B1A68012A00F09A81BC
:1097A000BF4B1A68012A00F08781BE4B1A68012A54
:1097B00000F05D81BC4B1A68012A07D0BB4B1A68C8
:1097C000012A00F0CB81FEB905B0F0BDB84AD2F84D
:1097D00004231206F2D500221A6019680291196E4C
:1097E0000298012903F1600346F080060CD11A604B
:1097F0001B6803934FF0A043039AD3F820250192EE
:10980000C3F8202546F00046AA4F00240125A300F6
:1098100003F180432E4203F5C0434FEA45050BD0C8
:10982000D3F8100557F82420D3F81015C0F30420FE
:10983000C1F3014102B190470134082CE7D1002E59
:10984000C2DA9C4C01254FF0A04694F95000471C09
:109850003DD0C0F3C20204AB1A4400F0070312F873
:109860000C2C05FA03F31A42C1B200F03F002ED0CF
:10987000830003F1A04305FA00FCD3F80027D3F8D6
:10988000007727F44037C3F80077C2F30142D3F8DA
:109890000077022A0CBF4FF4403E4FF4003E4EEAE0
:1098A000070E2718C3F800E7C6F820C597F930302F
:1098B00054F823305BB18909032900F07181022A31
:1098C00000F06B81032A02D1022900F0698194F92A
:1098D0005100411C3DD0C0F3C20204AB1A4400F059
:1098E000070312F80C2C05FA03F31A42C1B200F078
:1098F0003F002ED0830003F1A04305FA00FCD3F80B
:109900000027D3F8007727F44037C3F80077C2F375
:109910000142D3F80077022A0CBF4FF4403E4FF4C7
:10992000003E4EEA070E2718C3F800E7C6F820C528
:1099300097F9303054F823305BB18909032900F0DE
:109940002581022A00F01F81032A02D1022900F09A
:109950001D8194F95200421C3DD0C0F3C20204ABF9
:109960001A4400F0070312F80C2C05FA03F31A420C
:10997000C1B200F03F002ED0830003F1A04305FAEE
:1099800000FCD3F80027D3F8007727F44037C3F85A
:109990000077C2F30142D3F80077022A0CBF4FF4DC
:1099A000403E4FF4003E4EEA070E2718C3F800E78A
:1099B000C6F820C597F9303054F823305BB18909D7
:1099C000032900F0DE80022A00F0D880032A02D1A9
:1099D000022900F0D68094F95300431C3DD0C0F317
:1099E000C20204AB1A4400F0070312F80C2C05FA6B
:1099F00003F31A42C1B200F03F002ED0830003F1FE
:109A0000A04305FA00FCD3F80027D3F8007727F429
:109A10004037C3F80077C2F30142D3F80077022A37
:109A20000CBF4FF4403E4FF4003E4EEA070E27189D
:109A3000C3F800E7C6F820C597F9303054F8233052
:109A40005BB18909032900F0A680022A00F0A080FA
:109A5000032A02D1022900F09E80D6F82035019316
:109A6000C6F82035002B7FF4F0AE05B0F0BD104AEB
:109A7000D2F8042351067FF59DAE00221A601B68C0
:109A80000293029B46F0400694E600BF006100404E
:109A900004610040086100400C610040106100401A
:109AA00014610040186100401C6100407C6100406E
:109AB00000600040382B00203A4AD2F80423900678
:109AC0007FF573AE00221A601B680293029B46F07A
:109AD00020066AE6334AD2F80423D4067FF560AE46
:109AE00000221A601B680293029B46F0100657E69C
:109AF0002C4AD2F8042315077FF54DAE00221A60D8
:109B00001B680293029B46F0080644E6254AD2F8F9
:109B1000042357077FF53AAE00221A601B680293B0
:109B2000029B46F0040631E61E4AD2F8042392074F
:109B30007FF527AE00221A601B680293029B46F055
:109B400002061EE61749D1F8046316F001063FF439
:109B500013AE136013680293029B0DE600221A6095
:109B60001B6803934FF0A043039AD3F8202501927A
:109B7000C3F82025002E3FF464AE43E601297FF4AC
:109B80002AAF984727E701297FF4E3AE9847E0E63C
:109B900001297FF462AF98475FE701297FF497AE10
:109BA000984794E600600040014B1B68184700BFCF
:109BB000942B0020114B98421DD130B583B0002367
:109BC0000DF107008DF807300D46FDF73FFF0C4BF8
:109BD0001C794CB99DF807001D6001221A71FDF730
:109BE0005BFF204603B030BD9DF80700FDF754FF32
:109BF000112003B030BD0020704700BF002000409E
:109C0000942B0020034B984203D1034B00221A608F
:109C10001A71704700200040942B002030B56E4A26
:109C2000D2F8043399058BB068D5D2F82431002BD3
:109C300064D00023C2F82431D2F8243101934FF4C8
:109C40000171664B0198C2F8081393F8291009B9FD
:109C500001215160604902228DF81820D1F880243A
:109C6000C1F880249869D968099200240025CDE9BB
:109C70000710C3E90645D3E9001206A89047564AE3
:109C8000D2F81C31C3B1554B5869196A88426AD958
:109C900093F8281001F0FF00002964D1C2F81C01DC
:109CA000D2F81C11039103999C68186A196A205C08
:109CB00001311962C2F81C05474AD2F84431DBB1C0
:109CC0000021464BC2F84411D2F8440193F8291000
:109CD0000090009809B1012111609A6962B1586A37
:109CE000D96800229A610122CDE907108DF8182069
:109CF00006A8D3E9001290470BB030BD364AD2F81F
:109D000004335B07BBD5D2F80831002BB7D0334BF7
:109D1000996900293ED00021C2F80811D2F8081133
:109D200004910499D868596AD2F8182542545A6A9D
:109D3000996901325A625A6A8A42A0D1DA69002AC4
:109D400031D0DD685C6A18699A6101210022D8600F
:109D5000DA615A628DF81810CDE90754D3E9001280
:109D600006A890478BE71C4A0021C2F81C11D2F8C4
:109D70001C210292029A5A69002A9DD058699A6859
:109D80008DF8181008905961079206A8D3E90012BF
:109D9000904791E7C2F80811D2F80801059005989C
:109DA000D2F81825C7E793F8292012B90A4A0121E9
:109DB0005160094A4FF40171C2F80813596ADA6810
:109DC00008910024012007928DF81800D3E90012B1
:109DD0009C6106A8904752E700200040A02B00207D
:109DE0002DE9F041624F06792C2303FB067382B004
:109DF00093F82A30002B40F08D8005460C46006811
:109E00005C499046FFF7D6FE00287FD12368591C95
:109E10000CD001224FF0A04102FA03F3C1F808353B
:109E2000236803F5E073032241F8232063685A1C7A
:109E300006D003F5E0734FF0A042002142F8231052
:109E40002B68A269C3F82425217D637D2A680B4312
:109E5000C2F86C35D4E900122B68C3F81425C3F896
:109E60000C15237D012B61D02C2303FB06F3FA187C
:109E7000C2F804802269FA502A68B8F1000F33D082
:109E80000021237FC2F81C11D2F81C2100922A68FD
:109E9000DDF800C0C2F84411D2F844112A680191DB
:109EA000354C0199C2F804432A6842F3073100296E
:109EB0004FEA123232DB01F1604101F561415B0191
:109EC000DBB281F800332A6842F30733002B4FEAF4
:109ED000123109DB294C01225B0901F01F0102FA52
:109EE00001F144F823102A682C2303FB0676012491
:109EF00000230421C2F80015C6E9063386F82A407B
:109F000086F82930736102B0BDE8F081112002B0FB
:109F1000BDE8F081082002B0BDE8F081184902F0E8
:109F20000F025B011144DBB20B76CCE7A368591C2E
:109F300006D003F5E0734FF0A042002142F8231051
:109F4000E3685A1C0DD001224FF0A04102FA03F33E
:109F5000C1F80835E36803F5E073032241F82320D4
:109F6000E3682A68A168C2F80835C2F810157BE7D3
:109F7000A02B00201D9C02008000020000E100E0F8
:109F8000FCEC00E0F8B5334E047902682C2303FBA7
:109F9000046300215B68C2F80015C3B103682E4A50
:109FA000C3F80823036843F30732002A4FEA13314A
:109FB0000EDB5209294D2032012301F01F0103FA63
:109FC00001F145F82210BFF34F8FBFF36F8F036885
:109FD000D3F80CC5D3F81475D3F80815D3F8105579
:109FE0004FF0FF32C3F81425C3F80C2503689445DD
:109FF000C3F80825C3F8102506D00CF5E07C4FF017
:10A00000A043022243F82C207B1C06D007F5E07702
:10A010004FF0A043022243F827206A1C06D005F522
:10A02000E0754FF0A043022243F825204B1C06D0D8
:10A0300001F5E0714FF0A043022243F821200068AF
:10A04000FFF7E0FD2C2303FB0464002384F82A308F
:10A050006360F8BDA02B00208402020000E100E054
:10A060002DE9F041314E05792C2303FB05630446AD
:10A07000586984B000284CD15A619960186283F8FD
:10A0800028002268C2F81C01D2F81C112268029133
:10A090000121029F91602268D3F808C0C2F81C0118
:10A0A000D2F81C11019101991F6A196A1CF80770F6
:10A0B00001311962C2F81C755A6812B104B0BDE8CA
:10A0C000F0815F691A6A216897421BD9864602E0CF
:10A0D00093F828200ABBD1F81C21002AF8D0C1F837
:10A0E0001CE1D1F81C210392039AD3F820801A6A4C
:10A0F0001CF8088001321A62C1F81C851A6A97425E
:10A10000E9D82168D1F81C31002BFBD00123CB60AA
:10A1100004E0112004B0BDE8F0810F202C2303FBE4
:10A12000056500236B6104B0BDE8F081A02B002021
:10A1300030B5574BD3F824218BB0002A75D00022BC
:10A14000C3F82421D3F82421049202228DF8182088
:10A15000049AD3F880144F4AC3F880140991D3F8B5
:10A160003C15D3680891002400250793C2E90645F1
:10A170001168536806A89847454BD3F8442152B15B
:10A180000021444AC3F84411D3F844019169039073
:10A190000398002938D13E4BD3F820215AB1002131
:10A1A000C3F82011D3F8202102920120394A029CE1
:10A1B000D8605069D8B9364BD3F85821AAB10021DC
:10A1C000C3F85811D3F85801324A019001985069E8
:10A1D00058B1D3F84C05936808908DF81810516168
:10A1E000079306A8D2E9001398470BB030BDD3F807
:10A1F0004C05936808908DF818105161079306A8D4
:10A20000D2E900139847D6E7D3F83C35D1680893D4
:10A2100000240025012307918DF81830C2E9064576
:10A22000D2E9001306A89847B5E7D3F81011002922
:10A23000A2D0C3F81021D3F8101116480591059942
:10A240008469D3F83C15A14296D1C469A4B1D3F86E
:10A250000052846125F02005C3F80052D0E9034381
:10A26000C26101220891C3600168436807948DF8B8
:10A27000182006A898477FE7C26884610123CDE9CA
:10A2800007218DF81830D0E9001306A8984773E726
:10A2900000200040D02B00202DE9F0430779704EBC
:10A2A00007EBC70306EB830387B093F82030002B3E
:10A2B00040F0A78004460D4600686A499146FFF7C2
:10A2C00079FC002840F099802B68591C4FEAC70898
:10A2D0000CD001224FF0A04102FA03F3C1F8083577
:10A2E0002B6803F5E073032241F823206B685A1CA6
:10A2F00006D003F5E0734FF0A042002142F823108E
:10A300002368A969C3F82415297D6A7D23680A4357
:10A31000C3F86C25D5E900312268C2F80C35C2F8C3
:10A3200014152B7D012B78D008EB070206EB820376
:10A33000C3F804902B6946F82230B9F1000F4BD0D6
:10A3400021682B7F484D0022C1F81021D1F810114F
:10A3500001912168DDF804C0C1F82021D1F8201155
:10A3600002912168DDF808C0C1F82421D1F8241138
:10A3700003912168DDF80CC0C1F84421D1F84411E3
:10A3800004912168DDF810C0C1F85821D1F85811A6
:10A39000226805910599C2F80453226842F30731F7
:10A3A00000294FEA123230DB01F1604101F56141D1
:10A3B0005B01DBB281F80033226842F30733002BE4
:10A3C0004FEA123109DB294D01225B0901F01F011F
:10A3D00002FA01F145F823102268474406EB87068C
:10A3E000002301240821C2F80015C6E9063386F8C7
:10A3F0002040736107B0BDE8F083112007B0BDE8CD
:10A40000F083082007B0BDE8F083194902F00F027D
:10A410005B011144DBB20B76CEE7AB68591C06D06A
:10A4200003F5E0734FF0A042002142F82310EB68DF
:10A430005A1C0DD001224FF0A04102FA03F3C1F8DB
:10A440000835EB6803F5E073032241F82320EB683D
:10A450002268A968C2F80835C2F8101564E700BF81
:10A46000D02B002031A102001003420000E100E0E7
:10A47000FCEC00E02DE9F04105794B4C05EBC50300
:10A4800004EB830301465B68006882B0EE00C3B151
:10A49000464BC0F808330B6843F30732002A4FEAF3
:10A4A00013330EDB5209DFF808C12032012703F015
:10A4B0001F0307FA03F34CF82230BFF34F8FBFF3AB
:10A4C0006F8F721904EB8202D0F80032926923F088
:10A4D0002003C0F8003242B10023C0F84431D0F864
:10A4E000443100930123009A43600023C0F858319F
:10A4F000D0F8583101937319012204EB8303019FB3
:10A50000C2609A69D0F85831002BFBD01AB1D0F84C
:10A510004431002BF6D00023C0F800350B684FF013
:10A52000FF32D3F80C85D3F814E5D3F80875D3F8C7
:10A5300010C5C3F80C25C3F814250B689045C3F863
:10A540000825C3F8102506D008F5E0784FF0A043A1
:10A55000022243F82820BEF1FF3F06D00EF5E07E30
:10A560004FF0A043022243F82E20BCF1FF3F06D05B
:10A570000CF5E07C4FF0A043022243F82C207B1C1A
:10A5800006D007F5E0774FF0A043022243F82720DA
:10A59000FFF738FB354404EB8504002384F82030B2
:10A5A000636002B0BDE8F081D02B002010034200B0
:10A5B00000E100E0F0B401F06044B4F1005F82B06B
:10A5C0002CD10579274E05EBC50406EB8404034620
:10A5D0006069EF0000283ED16261A1601A68C2F88C
:10A5E0002001D2F820C11A68CDF804C0DDF804C0FB
:10A5F000C2F85801D2F8582100921A68DDF800C05C
:10A60000D4F814C0C2F84415C2F848C51A6801212C
:10A610009160626832B102B0F0BC7047102002B0A5
:10A62000F0BC70471A6800E0C8B9D2F82011D2F81F
:10A6300058010029F8D090B90121D1601B68D3F8E6
:10A640005821002AFBD07B1906EB830300225A61B4
:10A6500002B0F0BC7047112002B0F0BC70470F2070
:10A66000F1E700BFD02B0020032806D8012A06D02E
:10A6700001291BD0022908D071B107207047012998
:10A6800011D002294FF00002F6D10B4B00EB400035
:10A69000034400205A707047074B00EB400003440E
:10A6A00008469A70704700F10E02D2B200EB4003E8
:10A6B00001490020CA547047F42B002010B50388CC
:10A6C000102B07D0112B04D1254B186801381860C6
:10A6D00030B110BD224C216811B30131216010BD91
:10A6E00001220221FFF7C0FF40B1072806D01D4B11
:10A6F0001B68002BEDD0BDE810401847072202214F
:10A700000120FFF7B1FF08B10728F0D1002108466A
:10A710000A22FFF7A9FF0028DBD00728E7D1D8E7F6
:10A7200001220846FFF7A0FF38B1072805D00D4BDE
:10A730001B6803B198472168CFE707220221012057
:10A74000FFF792FF08B10728F1D10422022100206F
:10A75000FFF78AFF0028EED00728E8D1EBE700BF1B
:10A76000042C0020002C002075DF704776DF704736
:10A770008FDF7047FCF700BF0146014801F0C6BFFC
:10A78000942D00200378052B00D0704740680028E6
:10A79000FBD0FCF7F1BE00BF0D2801D0FCF7ECBEEA
:10A7A00010B50E480C4602F037F948B143F20202E8
:10A7B000904212D0082810D0BDE81040FCF7DCBE53
:10A7C0000748084B0849C01AC0080004224640F058
:10A7D0000300BDE81040FCF7F1B810BD942D002037
:10A7E00050DF020028DF020020D7020070B50E788B
:10A7F000012E0C4613D0022E29D11B4B1B480A797F
:10A800001B49C01AC008000440F00300FCF7D6F84A
:10A8100023793046E3B1BDE87040FEF739BC0A1D2C
:10A8200005464988134802F029F90F4B0F48628802
:10A830001149C01AC008000440F00300FCF7BEF83C
:10A84000FCF784FE60B9284602F0BEF820B970BD5E
:10A85000BDE87040FEF728BCBDE87040FCF78CBE38
:10A86000FCF78AFEEFE700BF28DF020050DF02009E
:10A870006CD70200942D002038D7020010B5038851
:10A88000212B82B004462ED80F2B2AD9103B112B36
:10A8900027D8DFE803F0094826262626262626267E
:10A8A00026262626264026362E4B2F482F49C01A0C
:10A8B000C008000440F00300FBF7BCFFA1882C484F
:10A8C000002202F0DBF8002843D1A188294800F0DB
:10A8D0003BFD002843D10120FEF7DAFB0020FEF704
:10A8E000E3FB02B010BD3B2B01D0562BF9D1A08861
:10A8F0001321FFF73BFF0028F3D0FCF73DFE02B029
:10A9000010BD00238088ADF8043001A9FFF730FFA7
:10A910000028E6D0F1E700F108018088FFF724FF66
:10A920000028DED0E9E70F4B0F481349C01AC008D2
:10A93000000440F00300FBF77DFF104801F0C0FD6C
:10A9400050B90120FEF7B0FB0020FEF7A1FB02B0DA
:10A9500010BDFCF711FEB8E7FCF70EFEF1E7FCF7BF
:10A960000BFEB8E728DF020050DF020094D7020098
:10A97000942D0020001E0020A0D70200C02D002032
:10A9800000B54FF4804185B00020FBF7DDFD0028C5
:10A9900040F08480FBF7C8FDFCF7CEFF002840F0B4
:10A9A000A4800120FEF78CFB514840F23332012194
:10A9B000FCF76CFD002840F09580FEF70BF80028AE
:10A9C00040F08D8002F06AF8002840F08580002376
:10A9D00069460120009302F03DF9002879D16846CC
:10A9E00002F0F6F9002871D110220021684602F029
:10A9F000BBFA01233F4A40488DF8043069468DF880
:10AA00000C3001F007FD00285DD13B4800220121F8
:10AA100001F0ECFC002853D1384A3748002101F0FE
:10AA2000B3FC002849D13648002101F003F9002881
:10AA300040D108220021684602F096FA314C324B90
:10AA400000936846019400F0FDFB80BB2F4A304B19
:10AA5000304802936946CDE9002401F053FF18BB4A
:10AA60002D4B2E482E49C01AC008000440F00300A8
:10AA7000FBF7E0FE204801F023FD90B90120FEF72E
:10AA800013FB0020FEF704FB0020FEF701FBFBF7A1
:10AA9000A9FD0028FBD1FDF7B3FFF8E7FCF76CFD3B
:10AAA00078E7FCF769FDE9E7FCF766FDD8E7FCF716
:10AAB00063FDCBE7FCF760FDBBE7FCF75DFDB2E7AC
:10AAC000FCF75AFDA8E7FCF757FD9EE7FCF754FD9D
:10AAD0008AE7FCF751FD82E7FCF74EFD77E7FCF7CC
:10AAE0004BFD6FE7FCF748FD67E7FCF745FD58E7CE
:10AAF000E01D002085A70200C02D0020E4D7020041
:10AB0000AC2D0020E81D002079A70200EDA702006F
:10AB100075A70200942D002028DF020050DF0200FC
:10AB2000B0D7020032B3F8B5054608B3012916467E
:10AB30004FF000030ADDEA185278092A06D0EA5CD1
:10AB4000013213449BB25A1C8A42F4DB8B420FD26F
:10AB5000EA5C6AB1013A97B257B102339CB2E31989
:10AB60008B4205DC24B1304602F010FAB84203D023
:10AB70000020F8BD0020704702462919304602F037
:10AB8000D7F9B0FA80F04009F8BD00BF2DE9F047D1
:10AB900003888788103B98B004460A2B1CD8DFE84E
:10ABA00003F030291B1B1B1B1B1B1B1E0600037AFB
:10ABB00046483F2B4FEA1314394667D8FDF784F90E
:10ABC000032C65D042483946FDF77EF9022C63D04C
:10ABD00040483946FDF778F918B0BDE8F087037AA8
:10ABE000002BF9D1437A39481B0739466BD5FDF75D
:10ABF00061F9F1E738483946FDF766F918B0BDE864
:10AC0000F087364A9368DB43009351686846FDF746
:10AC10008BF9009B0193019B83B30026354629469F
:10AC200001A8FDF75BF928B118AB03EB4603013629
:10AC300023F8285C0135142DF1D10D960DF1340C5B
:10AC4000BCE80F0002AD0FC5BCE80F000FC59CE8C3
:10AC5000070085E807008EB10DF10A08DFF888A02B
:10AC600008EB460638F8029F1D4D28464946043534
:10AC7000FDF72AF9AA45F8D1B045F3D1132F12D91F
:10AC80000420FCF779FC18B0BDE8F087FDF712F955
:10AC90000F483946FDF70EF90E483946FDF70AF917
:10ACA00018B0BDE8F0870C483946FDF703F90C48A9
:10ACB0003946FDF7FFF8E37B022B8DD10948394671
:10ACC000FDF7F8F888E7FDF7FFF885E7402E00204C
:10ACD0003C2E0020382E0020302E0020282E002070
:10ACE0002C2E0020342E0020A42E00202DE9F84F19
:10ACF000684F90F8C6623D68C6EB0613C6EB830347
:10AD0000044600EB430045B388465900624B807807
:10AD100093F802C0844500F0A580012D1DD993F859
:10AD200006C0844500F0A680022D16D093F80AC014
:10AD3000844500F0A780032D0FD093F80EC0844502
:10AD40000DD0042D09D093F812C084457CD0052D78
:10AD500003D093F816C084457ED0BDE8F88FB3F8D1
:10AD60000CE034F801C0E645EBD14C4BD3F800B011
:10AD7000BBF1000FF1D0D4F8CC92B9F1050FECD8AB
:10AD800004EBC91A7623AAF8D22203FB06411A461D
:10AD90000AF5357002F0DAF8B8F1000F09F1010395
:10ADA00014BF00220222AB42CAF84CB38AF8D02268
:10ADB000C4F8CC32D1D1D4F84C3304F53470984770
:10ADC0003B68012B3BD9D4F8CC3304F55470984739
:10ADD0003B68022B33D9D4F84C3404F5747098478F
:10ADE0003B68032B2BD9D4F8CC3404F58A60984700
:10ADF0003B68042B23D9D4F84C3504F59A60984766
:10AE00003B68052B1BD9D4F8CC3504F5AA609847CC
:10AE10003B68062B13D9D4F84C3604F5BA60984732
:10AE20003B68072B0BD904F5CA650726EB6F28464C
:10AE300098473B6801369E4205F18005F6D3002312
:10AE4000C4F8CC32BDE8F88FB3F810E034F801C094
:10AE5000E6457FF47CAF88E7988A635A984284D0AD
:10AE6000BDE8F88FB3F800E034F801C0E6457FF4A0
:10AE700054AF7AE7B3F804E034F801C0E6457FF454
:10AE800053AF72E7B3F808E034F801C0E6457FF449
:10AE900052AF6AE7AC2E0020B02E0020A42E002076
:10AEA0002DE9F043064689B00C46154600212022C4
:10AEB000684602F059F896F8C68296F8C522C8EBA3
:10AEC0000813C8EB830806EB480E02EBC2039EF89A
:10AED00004005B0003EB4803511C0A3381423344F6
:10AEE00048D082423ED24FEA4807122111FB02713C
:10AEF00006F11C083144B84400F1FF3C62451B894F
:10AF00001BD04F8C0133BB421ED0013FBFB29BB25E
:10AF10001B48ADF81030002323702A46194B0068F7
:10AF2000ADF812706946042403968DF80040029330
:10AF300001F0ACF809B0BDE8F083BEF80870BB4280
:10AF400016D001339BB2E3E702EBC20308EB4303E5
:10AF5000571C5FFA87F948453A4686F8C57201F1F1
:10AF60001201CBD801230020237009B0BDE8F08383
:10AF70000023EDE71B89BEF80870BB42E1D1F1E781
:10AF8000C82E002089AF02002DE9F0430C463F494E
:10AF900094F8C6320D68C3EB0316C3EB8603002199
:10AFA0001646A1B05A0084F8C81204EB4303F5B169
:10AFB00037499B7807468878984254D0012D16D996
:10AFC0008879984255D0022D11D0887A984256D06F
:10AFD000032D0CD0887B98421FD0042D07D0887C8D
:10AFE000984235D0052D02D0887D984236D0DFF8C2
:10AFF000A48001AD7C220021284601F0B5FFD8F8DD
:10B000000030ADF80660032202948DF804200BB1E5
:10B010002846984721B0BDE8F083B1F80CC0A05A8B
:10B020008445DAD1DFF86C80D8F8009001ADB9F131
:10B03000000FDFD028467C22002101F095FF01237C
:10B04000ADF80660029728468DF80430C847D1E76E
:10B05000B1F810C0A05A8445C4D1E3E7898AA35A45
:10B060009942C4D1DEE7B1F800C0A05A8445A5D109
:10B07000D8E7B1F804C0A05A8445A4D1D2E7B1F80A
:10B0800008C0A05A8445A3D1CCE700BFAC2E002055
:10B09000B02E0020A42E00202DE9F0430446A9B0D4
:10B0A00020220D4601A8002101F05EFF604E94F8B9
:10B0B000C73232680133DBB2934284F8C73231D2EF
:10B0C00094F8C6325B4F04940133DBB2C3EB031236
:10B0D000C3EB820257F8230084F8C6324FF0000910
:10B0E00084F8C59204EB420144F81200762202FB78
:10B0F000034381F804901A684F48CDF816200222C5
:10B100004E4B8DF804204FF0010C0068ADF814C0D0
:10B1100001A92A46039300F0B9FF8046C0B929B0BF
:10B12000BDE8F08300217C2284F8C81209A801F050
:10B130001BFF434BADF826501B680A9403228DF881
:10B140002420002BEBD009A8984729B0BDE8F08354
:10B1500094F8C632326884F8C892C3EB0311C3EB8B
:10B160008103590004EB4303E2B19B78B87898421D
:10B170004AD0012A16D9B87998424AD0022A11D069
:10B18000B87A98424AD0032A0CD0B87B98424AD069
:10B19000042A07D0B87C984217D0052A02D0BA7D7D
:10B1A0009A422CD0264F09AE7C220021304601F075
:10B1B000DBFE3B68ADF8265003220A948DF824206C
:10B1C000002BACD030469847A9E73E8A605A8642A9
:10B1D000E3D11B4FD7F8009009AEB9F1000FE3D0CF
:10B1E00030467C22002101F0BFFE0123ADF826503D
:10B1F000CDF8288030468DF82430C847D4E7BA8A85
:10B20000635A9A42CED1E4E73E88605A8642B0D172
:10B21000DFE7BE88605A8642B0D1DAE73E89605ADD
:10B220008642B0D1D5E7BE89605A8642B0D1D0E718
:10B23000AC2E0020B02E0020C82E002089AF0200C6
:10B24000A42E002080B1036873B1426862B130B4AB
:10B2500006480749074D084C03600A600020012397
:10B260002860237030BC70470E207047A42E002049
:10B27000C82E0020AC2E0020A82E0020002857D079
:10B280002D4B1B782BB370B42C4C2D4B2268002A0D
:10B2900050D081789D788D421DD0012A34D99D7976
:10B2A0008D4222D0022A31D09D7A8D4222D0032AAB
:10B2B0002CD09D7B8D4222D0042A27D09D7C8D42AC
:10B2C0002CD0052A22D09D7D8D422CD0042070BC2C
:10B2D00070470820704706881D88AE42DDD11949A5
:10B2E000096889B1002070BC70479E880588AE420D
:10B2F000D8D1F4E71E890588AE42D8D1EFE79E8900
:10B300000588AE42D8D1EAE7052ADFD8511C00688B
:10B3100043F822002160002070BC70471E8A058817
:10B32000AE42CED1DBE79D8A01888D42CED1D6E7F1
:10B330000E2070470121EAE7A82E0020AC2E002045
:10B34000B02E0020A42E0020002843D0224B1B78D2
:10B35000DBB1224B1B68C3B1F0B590F8C86289B06D
:10B360000446A6B90D464FF4BA6231461C4F01F0AF
:10B37000FBFD31466846202201F0F6FD386829467B
:10B3800000F064FF30B109B0F0BD08207047112013
:10B3900009B0F0BD134BA4F8CA521B68C4F8CC0224
:10B3A00084F8C502A4F8C6022A46236002260125B5
:10B3B000CDF8123038680C4B039469468DF8006064
:10B3C000ADF81050029300F061FE0028DBD184F844
:10B3D000C852D8E70E207047A82E0020AC2E0020BF
:10B3E000C82E0020B02E002089AF0200002800F0F7
:10B3F000E2802DE9F04F0D46A3B0002900F0AB80AC
:10B40000744B1B78002B00F0A6800388322B044677
:10B4100000F0EC8000F2A280112B00F0CD80302BE8
:10B4200040F099808388B1F8CA229A4240F0938014
:10B43000C388002B40F0158291F8C632026976214C
:10B4400001FB0353C3F8062095F8C432827A1344F3
:10B45000062B00F3D08285F8C43203AE20220021EF
:10B460003046A78801F080FD0422002102A801F0E7
:10B470007BFD95F8C53295F8C622002B00F0EC81D3
:10B48000013BDBB2762103EBC30301FB02F101EBCD
:10B4900043032B445B8A01339BB2ADF8083076231B
:10B4A00003FB02534C481B89ADF80A3002994B4B01
:10B4B00000680593CDE9065103213A468DF80C103A
:10B4C000314600F0E3FD0746002844D095F8C63227
:10B4D000434AB4F804801168C3EB0312C3EB820340
:10B4E0000024580005EB430285F8C84219B33D4BD0
:10B4F00092789C78944200F0DE8201291BD99C79D5
:10B50000944200F0DF82022915D09C7A944200F028
:10B51000EC8203290FD09C7B944200F0ED82042939
:10B5200009D09C7C944200F0F282052903D0997DD9
:10B53000914200F0F3822C4C7C220021304601F035
:10B5400013FD2368ADF80E80032204958DF80C20BE
:10B550000BB13046984723B0BDE8F08F332BFAD1BA
:10B560008288B1F8CA329A42F5D1C18895F8C6727C
:10B5700095F8C562002940F051814389002B00F005
:10B580004D81762000FB07F006EBC60300EB43007D
:10B5900028442246D389A3F52453082B00F22F8197
:10B5A000DFE813F02B01500154012D012D012D0175
:10B5B0002D012D014A0170478288B1F8CA329A42A2
:10B5C000C9D100224FF6FF7381F8C822A1F8CA3210
:10B5D000C1E700BFA82E0020C82E002089AF0200BE
:10B5E000AC2E0020B02E0020A42E00208288B1F8BE
:10B5F000CA329A42AFD1C388002B40F0E48091F860
:10B60000C672827AC7EB0713C7EB830301EB4308CB
:10B610005E0098F804904A44062A00F3FF81D2B2F3
:10B6200088F80420384691454B4680F01382A446A2
:10B63000762202FB07F709EBC90107EB41015CF831
:10B640000C9F98F80420DCF8048005EB010E103103
:10B65000CEF80A90CEF80E80BCF808C0AEF812C042
:10B66000294403F1010E4FF0000C9645C1F804C0C7
:10B67000C1F808C04FEAC30180F09980A0460EEBE4
:10B68000CE0158F816AF07EB410105EB0109D8F8D8
:10B6900004B0C9F80EB0C9F80AA0B8F80880A9F833
:10B6A00012801031294403F102084245C1F804C058
:10B6B000C1F808C04FEACE0140F2C881A64608EBA7
:10B6C000C8015EF820AF07EB410105EB0109DEF888
:10B6D00004B0C9F80EB0C9F80AA0BEF808E0A9F88D
:10B6E00012E01031294403F1030E7245C1F804C081
:10B6F000C1F808C04FEAC80140F2AA81A0460EEB8B
:10B70000CE0158F82AAF07EB410105EB0109D8F843
:10B7100004B0C9F80EB0C9F80AA0B8F80880A9F8B2
:10B7200012801031294403F104084245C1F804C0D5
:10B73000C1F808C04FEACE0140F28881A14608EB6B
:10B74000C80159F834EF07EB410105EB010AD9F8BC
:10B7500004B0CAF80EB01031CAF80AE0053305EBA0
:10B76000010E9A42B9F80810AAF812104FEAC8015F
:10B77000CEF804C0CEF808C040F26A81214603EB3F
:10B78000C30E51F83E8F07EB4E0705EB070ED1F8BD
:10B790000490CEF80E901037CEF80A802F44098915
:10B7A000AEF81210D900C7F804C0C7F808C00B449F
:10B7B00005EB43037627334407FB0050598A03897E
:10B7C0009942C0F08680002685F8C562A28802A949
:10B7D0002846FFF765FB0746002844D19DF808304E
:10B7E000002B3FF4B8AEA28801212846FFF77EFA6D
:10B7F000A1882846FFF750FCADE69389C382838A6F
:10B800002BB1C38A1BB1038B0BB1438B33B9638953
:10B810000131994202F10602FFF4BCAE762202FB2E
:10B820000752731C1279002693428DF8086010D1DC
:10B8300001238DF80830D6E7B2F80CC0838AA0F84F
:10B840001AC0DDE793890383838AD9E793898382CA
:10B85000D6E785F8C532B9E7762303FB0253DB88C8
:10B860001BE60021C1E795F8C632C14AB4F804804E
:10B87000116885F8C862C3EB0312C3EB820358005A
:10B8800005EB430219B3BB4B92789C78944200F0CD
:10B89000E58001291BD99C79944200F0FA800229A5
:10B8A00015D09C7A944200F0FA8003290FD09C7B3B
:10B8B000944200F0FA80042909D09C7C944200F064
:10B8C0000881052903D0997D914200F0088103AEDB
:10B8D00031E6062A3FF477AF03AE85F8C522002192
:10B8E00020223046B4F8048001F03EFB04220021FF
:10B8F00002A801F039FB95F8C53295F8C622002B55
:10B9000000F00181013BDBB203EBC30307FB02F74D
:10B9100007EB43032B445B8A01339BB24FF076095C
:10B92000ADF8083009FB025393481B89ADF80A3083
:10B930000299924B00680593CDE9065103218DF8D9
:10B940000C104246314600F0A1FB074600283FF4A8
:10B9500002AE874B95F8C6221868B4F8048012FB33
:10B9600009F20023A91885F8C83200283FF4E3AD96
:10B97000804B89789C788C4200F0D68001287FF635
:10B98000DAAD9C798C4200F0DD8002283FF4D3AD23
:10B990009C7A8C4200F0CF8003283FF4CCAD9C7B96
:10B9A0008C4200F0D68004283FF4C5AD9C7C8C42CC
:10B9B00000F0D68005283FF4BEAD987D88427FF424
:10B9C000BAAD998AAB5A99427FF4B5AD6C4CD4F8B4
:10B9D0000090B9F1000F3FF4AFAD7C22002130465A
:10B9E00001F0C2FA0123ADF80E8004978DF80C30F7
:10B9F0003046C847A0E5634B63486449C01AC00895
:10BA00000623000440F0020085F8C4320190FAF7E2
:10BA100011FF01985E49FAF70DFF1EE5594B5A4890
:10BA20005C49C01AC008062388F804300004AA5BE9
:10BA300040F002000190FAF7C1FF01985649FAF769
:10BA4000F9FE98F8042095F8C602ECE57346AEE6D8
:10BA50004346ACE609F1FF33D900A8E61E882C5A0C
:10BA6000A6427FF416AF464CD4F8009003AEB9F16D
:10BA7000000F3FF461AD30467C22002101F074FAE2
:10BA80000123ADF80E80049730468DF80C30C8477E
:10BA900052E59E882C5AA6427FF401AFE3E71E8947
:10BAA0002C5AA6427FF401AFDDE79E892C5AA642AC
:10BAB0007FF401AFD7E735F800C01C88A4457FF4B8
:10BAC0001CAD83E735F800C09C88A4457FF41BAD0E
:10BAD0007CE71E8A2C5AA6427FF4F3AEC3E79A8A0B
